:020000040000fa
:080000000002040000000000f2
:020000040000fa
:0400080006030000eb
:020000040000fa
:04000c0018030000d5
:020000040000fa
:0400100030030000b9
:020000040000fa
:040014000e030000d7
:020000040000fa
:0400180020030000c1
:020000040000fa
:04001c0028030000b5
:020000040000fa
:0400200038030000a1
:020000040000fa
:04002400b60300001f
:020000040000fa
:04002800b60300001b
:020000040000fa
:04002c00b603000017
:020000040000fa
:04003000b603000013
:020000040000fa
:04003400b60300000f
:020000040000fa
:04003800d0260000ce
:020000040000fa
:04003c00b603000007
:020000040000fa
:04004000b603000003
:020000040000fa
:04004400b6030000ff
:020000040000fa
:04004800b6030000fb
:020000040000fa
:04004c00b6030000f7
:020000040000fa
:04005000b6030000f3
:020000040000fa
:04005400de200000aa
:020000040000fa
:04005800d6200000ae
:020000040000fa
:04005c00b6030000e7
:020000040000fa
:04006000f426000082
:020000040000fa
:04006400b6030000df
:020000040000fa
:04006800b6030000db
:020000040000fa
:04006c00b6030000d7
:020000040000fa
:04007000b6030000d3
:020000040000fa
:04007400b6030000cf
:020000040000fa
:040078006a03000017
:020000040000fa
:04007c00b6030000c7
:020000040000fa
:04008000b6030000c3
:020000040000fa
:04008400b6030000bf
:020000040000fa
:04008800b6030000bb
:020000040000fa
:04008c00b6030000b7
:020000040000fa
:04009000b6030000b3
:020000040000fa
:04009400b6030000af
:020000040000fa
:04009800b6030000ab
:020000040000fa
:04009c00b6030000a7
:020000040000fa
:0400a000b6030000a3
:020000040000fa
:0400a400b60300009f
:020000040000fa
:0400a800b60300009b
:020000040000fa
:0400ac00b603000097
:020000040000fa
:0400b000b603000093
:020000040000fa
:0400b400b60300008f
:020000040000fa
:0400b800b60300008b
:020000040000fa
:0400bc00b603000087
:020000040000fa
:0400c000b603000083
:020000040000fa
:0400c400b60300007f
:020000040000fa
:0400c800b60300007b
:020000040000fa
:0400cc00b603000077
:020000040000fa
:0400d000b603000073
:020000040000fa
:0400d400b60300006f
:020000040000fa
:0400d800b60300006b
:020000040000fa
:0400dc00b603000067
:020000040000fa
:0400e000b603000063
:020000040000fa
:0400e400b60300005f
:020000040000fa
:0400e800b60300005b
:020000040000fa
:0400ec00b603000057
:020000040000fa
:0400f000b603000053
:020000040000fa
:0400f400b60300004f
:020000040000fa
:0400f800b60300004b
:020000040000fa
:0400fc00b603000047
:020000040000fa
:04010000b603000042
:020000040000fa
:04010400b60300003e
:020000040000fa
:04010800b60300003a
:020000040000fa
:04010c00b603000036
:020000040000fa
:04011000b603000032
:020000040000fa
:04011400b60300002e
:020000040000fa
:04011800b60300002a
:020000040000fa
:04011c00b603000026
:020000040000fa
:04012000b603000022
:020000040000fa
:04012400b60300001e
:020000040000fa
:04012800b60300001a
:020000040000fa
:04012c00e6200000c9
:020000040000fa
:04013000b603000012
:020000040000fa
:04013400b60300000e
:020000040000fa
:04013800b60300000a
:020000040000fa
:04013c00b603000006
:020000040000fa
:04014000b603000002
:020000040000fa
:04014400b6030000fe
:020000040000fa
:04014800b6030000fa
:020000040000fa
:04014c00b6030000f6
:020000040000fa
:04015000b6030000f2
:020000040000fa
:04015400b6030000ee
:020000040000fa
:04015800b6030000ea
:020000040000fa
:04015c00b6030000e6
:020000040000fa
:04016000b6030000e2
:020000040000fa
:04016400b6030000de
:020000040000fa
:04016800b6030000da
:020000040000fa
:04016c00b6030000d6
:020000040000fa
:04017000b6030000d2
:020000040000fa
:04017400b6030000ce
:020000040000fa
:04017800b6030000ca
:020000040000fa
:04017c00b6030000c6
:020000040000fa
:04018000b6030000c2
:020000040000fa
:04018400b6030000be
:020000040000fa
:04018800b6030000ba
:020000040000fa
:04018c00b6030000b6
:020000040000fa
:04019000b6030000b2
:020000040000fa
:04019400b6030000ae
:020000040000fa
:04019800b6030000aa
:020000040000fa
:04019c00b6030000a6
:020000040000fa
:0401a000b6030000a2
:020000040000fa
:0401a400b60300009e
:020000040000fa
:0401a800b60300009a
:020000040000fa
:0401ac00b603000096
:020000040000fa
:0401b000b603000092
:020000040000fa
:0401b400b60300008e
:020000040000fa
:0401b800b60300008a
:020000040000fa
:0401bc00b603000086
:020000040000fa
:0401c000b603000082
:020000040000fa
:0401c400b60300007e
:020000040000fa
:0401c800b60300007a
:020000040000fa
:0401cc00b603000076
:020000040000fa
:0401d000b603000072
:020000040000fa
:0401d400b60300006e
:020000040000fa
:0401d800b60300006a
:020000040000fa
:0401dc00b603000066
:020000040000fa
:0401e000b603000062
:020000040000fa
:0401e400b60300005e
:020000040000fa
:0401e800b60300005a
:020000040000fa
:0401ec00b603000056
:020000040000fa
:0401f000b603000052
:020000040000fa
:0401f400b60300004e
:020000040000fa
:0401f800b60300004a
:020000040000fa
:0401fc00b603000046
:020000040000fa
:04020000b603000041
:020000040000fa
:04020400b60300003d
:020000040000fa
:04020800b603000039
:020000040000fa
:04020c00b603000035
:020000040000fa
:04021000b603000031
:020000040000fa
:04021400b60300002d
:020000040000fa
:04021800b603000029
:020000040000fa
:04021c00b603000025
:020000040000fa
:04022000b603000021
:020000040000fa
:04022400b60300001d
:020000040000fa
:04022800b603000019
:020000040000fa
:04022c00b603000015
:020000040000fa
:04023000b603000011
:020000040000fa
:04023400b60300000d
:020000040000fa
:04023800b603000009
:020000040000fa
:04023c00b603000005
:020000040000fa
:04024000b603000001
:020000040000fa
:04024400b6030000fd
:020000040000fa
:04024800b6030000f9
:020000040000fa
:04024c00b6030000f5
:020000040000fa
:04025000b6030000f1
:020000040000fa
:04025400b6030000ed
:020000040000fa
:04025800b6030000e9
:020000040000fa
:04025c00b6030000e5
:020000040000fa
:04026000b6030000e1
:020000040000fa
:04026400b6030000dd
:020000040000fa
:04026800b6030000d9
:020000040000fa
:04026c00b6030000d5
:020000040000fa
:04027000b6030000d1
:020000040000fa
:04027400b6030000cd
:020000040000fa
:04027800b6030000c9
:020000040000fa
:04027c00b6030000c5
:020000040000fa
:04028000b6030000c1
:020000040000fa
:04028400b6030000bd
:020000040000fa
:04028800b6030000b9
:020000040000fa
:04028c00b6030000b5
:020000040000fa
:04029000b6030000b1
:020000040000fa
:04029400b6030000ad
:020000040000fa
:04029800b6030000a9
:020000040000fa
:04029c00b6030000a5
:020000040000fa
:0402a000b6030000a1
:020000040000fa
:0402a400b60300009d
:020000040000fa
:0402a800b603000099
:020000040000fa
:0402ac00b603000095
:020000040000fa
:0402b000b603000091
:020000040000fa
:0402b400b60300008d
:020000040000fa
:0402b800b603000089
:020000040000fa
:0402bc00b603000085
:020000040000fa
:0402c000b603000081
:020000040000fa
:0402c400b60300007d
:020000040000fa
:0402c800b603000079
:020000040000fa
:0402cc00b603000075
:020000040000fa
:0402d000b603000071
:020000040000fa
:0402d400b60300006d
:020000040000fa
:0402d800b603000069
:020000040000fa
:0402dc00b603000065
:020000040000fa
:0402e000b603000061
:020000040000fa
:0402e400b60300005d
:020000040000fa
:0402e800b603000059
:020000040000fa
:0402ec00b603000055
:020000040000fa
:0402f000b603000051
:020000040000fa
:0402f400b60300004d
:020000040000fa
:0402f800b603000049
:020000040000fa
:0402fc00b603000045
:020000040000fa
:04030000b603000040
:020000040000fa
:04030400b60300003c
:020000040000fa
:04030800b603000038
:020000040000fa
:04030c00b603000034
:020000040000fa
:04031000b603000030
:020000040000fa
:100400000f5021000eff24000e01880000000000a4
:10041000000020000000e000020032000001200087
:100420002002880014000700320107000000e000ed
:1004300003003a00809a21000100200002003700ea
:100440000000200001002000810f70000100320038
:100450000f000700000020000000e0000200320052
:100460000000020000000000541f02000000000015
:100470000040da000000fe00400720000000e0001d
:1004800002003200002020009001880000000600d9
:10049000a1028800800478000000eb001f003700f4
:1004a000e284440054a0b4009905ba00e2844400f8
:1004b00054a0b4009906ba00e284440054a0b400e9
:1004c0000006eb00476fde00fd07b200ae018800ba
:1004d000636ce10003003a000ad801000000eb0061
:1004e0000e003700606ce10008003a00004deb00a0
:1004f0000a05e800020039003420ec000af0a000f0
:100500008b05e900f9ff3e00040037006168e10057
:10051000010032000086eb000b00070019c7ba008b
:100520001905ba000e04e00003003a000a00e000da
:10053000dbff3a0000000600fe07b200ae028800b2
:100540008a047800f5ff37000cd0a300e20f4d00bd
:100550001c00390089027800354dba000a05e80010
:10056000020039003420ec000af0a0008b05e900fd
:100570000f003200254dba000a05e80002003900dc
:100580003420ec000af0a0008b05e90008003200de
:100590000c00e0000600320015cdba000a05e800a4
:1005a000020039003420ec000af0a0008b05e900bd
:1005b0008984e80054a0b4000b00e000e2ff3a0098
:1005c000000006009902ba00055d78008b05e9007d
:1005d000f7ff3200c82ade00055d78008b05e900d0
:1005e000f3ff32000c00e000f1ff320019ddba0029
:1005f000eeff37005006040000000000b60a0400b9
:100600000000000000000400000000003600f800b8
:10061000c028a9000000eb00c81307003600f8004e
:10062000ca130700c048a90010002000c313070028
:100630003600f800c068a90020002000bf130700a2
:100640003600f800c088a90030002000bb13070066
:100650003600f800c0a8a90040002000b71307002a
:100660003600f800c608a90070002000b313070088
:100670003600f8002146800000002800008060005d
:100680000000e00003003200c5e8a900800020005f
:10069000aa130700214680000002200000806000ad
:1006a0000000e00003003200c4a8a9009000200070
:1006b000a213070020468000700060000000e000e8
:1006c00003003200c488a900a00020009b1307008b
:1006d000ffff37003600f800809fbe00829fbe00fb
:1006e000849fbe00869fbe001000fa006000b80024
:1006f000008fbe004000200001002000200798006d
:10070000310798006000b800400798005107980032
:100710003000200001002000600798007107980059
:10072000640047008000780060012100a2090700f2
:10073000008fbe000288a9000080fa004f03be00af
:100740004f02be004f01be004f00be003600f90050
:10075000004006000000fa000288a900c228a80094
:100760002288a8000080fa00000006000040da009d
:100770000000fe000a00fa0011002000b1bf9f0037
:10078000c0bf9f006a8057000c0707004fb8970052
:100790000080fa00000006000a00fa00e20f500094
:1007a0001f003e00e0a78000e10f5000060032006d
:1007b0008023200045232000232320000423200041
:1007c0000000e00004003a008022200045222000c2
:1007d0002322200004222000060028009403630046
:1007e00002003a0007087800140a730013a8a30057
:1007f00001003a0013a0a0000200780005003700b5
:100800001388a300feff32003102fb00840a780047
:100810000000e9000000e000f9ff3a00080037009e
:1008200033002000b3bf9f00c0bf9f00d1bf9f0017
:10083000e2bf9f006a805700e20607006fb9970089
:10084000020078000080fa00000006000a00fa00aa
:1008500051002000b1bf9f00c0bf9f006a805700b9
:10086000da0607005fb897000080fa000000060073
:10087000889fbe0080047800f0a780000000e000a0
:1008800004003a000e0007000084eb000000e000c6
:1008900008003500f8a780000900e00005003200dc
:1008a00009004400060007000000e00001003d00d0
:1008b0000084eb00080078004f04be000000060032
:1008c000800078000100e00003003a0000002000f2
:1008d000f0a78800000005000080eb000200200067
:1008e000828f500002003e00f1a788000000eb005c
:1008f0000000060000000500a14121002f000700b4
:10090000800078000080eb000100e000040035006a
:10091000a1412100a0002000020007004f80de005e
:1009200000000600889fbe008a1f78000004be00f9
:10093000c900900069009000808f500005003900c8
:10094000090078008e0007008080eb000000e000c6
:1009500016003500084578004900900008587800d6
:10096000c00498001900780000b8a30004003a0001
:1009700000a8a30007003200ea4f540005003a0027
:1009800009007800040307008080eb000000e0000d
:1009900006003a0000c0200019006000020032008a
:1009a00049009000e00498008a80fb000100780074
:1009b0004f0578004f04be0000000600889fbe006f
:1009c0008a9fbe008c1f78008004780001047800a4
:1009d0002f003700c800900068009000808f500002
:1009e0000400390008007800650007000000e000fe
:1009f0003a00350000402000180060000a00320074
:100a0000a1002000090078005000070000067800cf
:100a10000c00e00004003200618514000a05460065
:100a2000cfd5de0004003700090078003e00070043
:100a30000005be000006eb00480090006801900031
:100a400000015100cf91de008a0f51008b8f5900b9
:100a5000020031000205be000006eb000a01be00e4
:100a60008900780022000700480090000a0040003a
:100a7000400498000c00e0000400320008007800f8
:100a8000c50207000000e00014003a008a84440018
:100a90001904e000cfff3a00008020001800600039
:100aa0000600320008007800bb02070080007800d2
:100ab0000080eb000100e00009003a0001c02000c6
:100ac000988060000000eb000500320048009000b4
:100ad000600498000000eb00010037000080eb008c
:100ae0004f0678004f05be004f04be000000060010
:100af0000202be008001eb0007003700611bb80056
:100b00000601400006834000164978006102520049
:100b1000e0825a008301e800e00f5200e08f5a00a3
:100b2000f6ff3a0000000600800078000000eb00ad
:100b3000008140000000e8001204e000fcff3a00e1
:100b400001005100cf80de00000006006011b800f7
:100b50006103b80006034100e0834b0016427800b1
:100b6000814f520001003a00860178000201e8003e
:100b70000404e000f6ff3a000300780000000600dd
:100b8000889fbe008a1f780000047800c80090008b
:100b9000680190000000eb00828f50003d0039009a
:100ba000180078002200290002016000e20f5100c5
:100bb00007003200012024000000e00001003d0099
:100bc00001202000008c70000080eb003100370015
:100bd0000200260002006000820f500009003a0067
:100be00038009000808f500006003900080078001f
:100bf00069020700800078000080eb000100e0003f
:100c000024003a001805780000c0200000006500ac
:100c100019003a00a804900060022000080040007b
:100c2000808f540014003a000020200001002000b2
:100c30008a030700200498000000e00005003a0045
:100c400029049800490498008904e80039049800b0
:100c5000080037000a60a0000a0c780040049800e1
:100c6000012020008080400031049800400c980052
:100c7000500c9800f20107002800900050049800e2
:100c8000380090006004980000002600180c7000e6
:100c90000000eb004f0578004f04be000000060086
:100ca000881f78008a9fbe00000478000100780049
:100cb0000205be00880078000202be00120020007b
:100cc00003002000bf0207008a0f50008b8f5800de
:100cd000010032000004eb00080078004f05be0060
:100ce0004f047800000006000000fa00e881570079
:100cf0004fb99700a14121000065200002000700c4
:100d00000080fa00000006006200fa00889fbe0022
:100d10008a9fbe00000578008104780002047800f4
:100d20008300780060f92f000f0040006e0207007a
:100d30008a979f0099979f000000eb00a09f9f005b
:100d40001885fb008a04fb000a05ea004f55de0007
:100d500050022000808f54000e003200e10f550039
:100d60000c003a00120020000300200088007800e8
:100d70001f9097000f9297000400010090979f002a
:100d80000000e000970032002f9897000000e80074
:100d9000a09f9f000a04440050022000808f54004e
:100da000040032000900e000e5ff3a002f989700a8
:100db0008d0037000000eb00809f9f00f0979f00a0
:100dc000e0979f00d0979f00c0979f00b0979f002b
:100dd000c09f9f000005eb0008003700a14e2100d6
:100de000810050008100d000e24d2100828040004f
:100df0004f98970011007000c09f9f008a04440024
:100e0000994578008b00fb00a04e21001d020700d1
:100e10000a05e8000000e000f0ff3a00a1c2b300bc
:100e200081cf55000e003a00bf8897000180e9008d
:100e3000b08f9f0010007800b09f9f000000e0007e
:100e400005003d000000ea00b09f9f004f9897000a
:100e50000020a000c09f9f000904e8000f00370099
:100e6000b09f9f006000b80006003700f3ff270026
:100e7000830f500002003200ea00b9000000410078
:100e80008100e800018444001801fb000203b10066
:100e9000e90f5100f5ff3600b09f9f00e0c2b3009c
:100ea000984f1000030032000080eb00909f9f00dd
:100eb0002000370008007800a1c2b300d0cf100096
:100ec00007003a003f8997008280e900b18f9f00b8
:100ed00091007800919f9f000004e8001500370002
:100ee0000000eb00909f9f008000eb0006003700a1
:100ef000f2ff2700820f500002003200ea00b90022
:100f0000000042008100e8000801e8008001eb00d9
:100f100002814000e0814900124278000402fb0097
:100f20000403b100e90f5200f1ff3600909f9f00cb
:100f300002047800984478008900fb00604d21008d
:100f4000d00107000000e000020032000804e800c1
:100f5000010037008044eb00a97f9f0080c6b300ea
:100f600080cf540004003a0098cf14000a003a00e1
:100f70006640500006003700c0c6b30080cf540062
:100f800005003a0098cf140003003a006540400085
:100f9000a07f9f000804e8001801fb00c3fb2f009e
:100fa0008f81410061f92f008f80400080f92f0070
:100fb0000f004000100007000000e00009003a00a8
:100fc000c1fb2f008f80400080f92f000f004000f0
:100fd0003b0407000000e000020035000804e800c0
:100fe00057ff37000080eb004f05be004f04be00e6
:100ff0000080fa0000000600881f7800e4c6b300f5
:10100000844f5100be00320010003c006b42520081
:10101000844f51001800320005003c0054c2b30058
:10102000844f5100f600320084c5b3000f00370032
:1010300044c6b300844f510015003200654242009f
:10104000844f5100f1003a001100370004c7b3008b
:10105000844f5100dd0032005700350065424200e8
:10106000844f51005400320063424200844f5100cb
:10107000e6003a00500037001181e900820878004c
:10108000f00090008181410092497800e50037002e
:1010900020629000c5c6b300854f520007003a0099
:1010a0009102780064825200840878001402be0025
:1010b0004fabde00860378001100370015c7b30080
:1010c000854f520003003200a5c6b300854f520081
:1010d00006003a0091027800688252008408780085
:1010e0005403be004402be00050037001182e9002f
:1010f0008408780014027800cfa2de00612bb900ca
:101100000498be000690be00a060900088c6b300a0
:1011100088cf50000d00320028c6b30088cf5000a1
:1011200004003a000402fb00cfa2de00612bb900ec
:101130000800370048c7b30088cf500003003200d2
:101140006644440088cf500004003a00cfa2de007d
:10115000612bb9000498be000690be003002be00ac
:101160002003be00f0009000e00f5200e08f5a0014
:10117000e00f5b00e08f5b0003003d000182410057
:10118000d5c2b3000a003700001290000418a30073
:101190000300320001824100b5c2b30004003700f1
:1011a0000408a300510032000182410005c2b300cf
:1011b000054a78004b00370020629000c5c6b30096
:1011c000854f520006003a00910278006482520076
:1011d000840878001402be006033b80011003700a4
:1011e00015c7b300854f520003003200a5c6b300f7
:1011f000854f520006003a00910278006882520042
:10120000840878005403be004402be000500370085
:101210001182e90084087800140278008002eb0053
:101220006033b8000498be000690be00a060900035
:1012300088c6b30088cf500003003a008002eb005c
:101240006033b8000e00370028c6b30088cf5000c6
:1012500004003a000482fb008002eb006033b80017
:101260000700370048c7b30088cf500003003200a2
:101270006644440088cf500003003a006033b80051
:101280000498be000690be00801090000138a300b4
:10129000160032003002be002003be00e00f5200f4
:1012a000e08f5a00e00f5b00e08f5b000f00320020
:1012b00081c7b300814f51000300320081c5b300e4
:1012c000814f510009003a00f00090000182410076
:1012d00005c3b300054a78008100e800018241009f
:1012e000024a78008100e80071009800f000900048
:1012f0008181410063009800824078003e00370001
:10130000a0619000c4c6b3001181e90084cf5100f0
:10131000220032000a003c006442520084cf510097
:101320002500320004c2e80084cf510013003200cf
:101330006842520084cf51001e003a000a00370074
:1013400044c7b30084cf51001b0032006642420004
:1013500084cf5100110032006942520084cf510005
:1013600014003a00050037008208780092007800e7
:1013700040589000804878002c00370082087800a0
:1013800092007800600a9000cfa2de00612bb900c5
:101390008498be008690be00240037008208780042
:1013a0009200780060099000cf91de008288be0034
:1013b0001e0037001181e900820878009200780051
:1013c0006008900080087800180037001181e9005b
:1013d0008208780012027800cfa2de00612bb900eb
:1013e0000498be000690be00f0009000818141008c
:1013f0006300980081c7b300ed0107000b003700c0
:10140000f00090008181410005003700f00090005d
:10141000818141000204e00001003a0052c2b300a1
:10142000824978008100e800710098000000eb001c
:101430004f0478000000060060ab20009d003700dc
:10144000881f7800a84f21001804e00003003a002c
:10145000f9ff070020c0b300004c78004f0478006b
:1014600000000600889fbe00000478000800780095
:101470004900070080047800000420001800600084
:101480000200320028009000990007000000eb00e5
:1014900020049800384090000004e000050035006a
:1014a0000000fb00b3fc07000000e0000100320078
:1014b0008084eb00181090000000e000080032006b
:1014c000e2fc07000000e000010032008084eb0035
:1014d00018109000860007000000eb001014980020
:1014e00000082000180060000f0032008146210033
:1014f0000000eb00d10f140005003a00000040008e
:10150000a1462100008040000008eb0003003700e6
:101510000000e800e80f5000f6ff3a0008007800ed
:10152000730007000e003700000c780000c0eb00cd
:101530003044980060022000080040002004980019
:101540004004980050049800400c980060049800f3
:10155000500c98007004980076004400000c98002d
:10156000090078004f04be0000000600889fbe00fe
:10157000a8472100f0045400480078000000e00073
:1015800001003200b7ff0700890f5400faff3a004c
:101590004f04be0000000600889fbe008a1f78002e
:1015a000000478000800e0000d003a0088462100a1
:1015b000700544008004eb00580078000000e00053
:1015c00004003200f4ff07000000e00001003d00cd
:1015d0008084eb008a0f5400f7ff3a0025003700a3
:1015e00000002200180060008004eb00210032009f
:1015f000a80490000f003700090151003840900006
:101600000000fb008900780063fc07000000e00098
:1016100007003c00280090004004980060049800f7
:10162000500c98001890a0008084eb001100370047
:101630008084440048019000828f5400eeff3900fe
:1016400028009000400498009800780002c0200014
:101650000281600001003a003800900001e8a30018
:10166000020032006004980001003700500c98001e
:101670008004eb00090078004f0578004f04be009d
:1016800000000600020037000304e00006003200fc
:101690000001780002007800b041780081cf51004d
:1016a000f9ff3a00010037000001eb00020078006a
:1016b00000000600010020000100e00009003200e7
:1016c000010080000100e000060032008100e90016
:1016d00001008800818040000200800081004100fc
:1016e000800878000000060001087800000006006d
:1016f0000000e000320032004002be00e50f520060
:10170000e08f5a002e0036000408a3002c003a0097
:10171000b1a780000100e00002003200810f5000fc
:101720000400310021009800b0a78800170037009e
:1017300082007800210190000200e00002003200e7
:10174000800f5100faff39001103be00868140006e
:10175000830f50001a003900808f510004003a00b6
:101760008418430085904b00010078000700370083
:101770000200e0000300320004024000840f510028
:101780000f00390022009800a0009800a0009000ef
:101790000100e0000a00320010014000828f50007a
:1017a00007003a00424f21000009eb001001be0083
:1017b0003118410021904900a100900021009800bb
:1017c00000000600ea874700889fbe008a9fbe008f
:1017d0008c9fbe008e1f7800000678000204be00b9
:1017e0000405be00010778000400be001b030700cb
:1017f000d0b79f00e1b79f00e00f5000e08f580086
:1018000052003200e00f5400e08f5c0050003200c4
:10181000fcb79f000006be00ce0090006e00900056
:10182000808f5000040039000e007800d4fc0700bf
:101830000000e00033003500004020001e00600082
:101840000c0032000c01be00a10020007fb0970008
:10185000b9000700000278000400e0000800320030
:10186000ffb19700618511000a054200cfd5de0067
:10187000040037000c05be000002eb000100370039
:101880000c05be004e0090006e019000000151005a
:10189000cf91de008a0f51008b8f5900020031007a
:1018a0000205be000002eb000a01be00ffb0970077
:1018b00084bf9f008efc07000a0656008b865e00e0
:1018c0004e0090000a004000400798000fba9700b1
:1018d0000400e000040032000e0078002eff070034
:1018e0000000e00007003a00e00f5600e08f5e00c5
:1018f000040032007fb097000a004000f0b79f005c
:10190000c5ff3700008020001e006000020032008a
:101910000e00780020ff070000c020001e006000bd
:1019200002003200ce009000610798005fb197007e
:10193000efb197000c0051008d8059000801be00e6
:10194000b30207000005be00010037006055b80073
:101950000a00be004f0778004f06be004f05be00cc
:101960004f04be00af00b10000000600889fbe001b
:101970008a9fbe000004be00a1a780000100e00015
:1019800002003200010078000f003700b1a780008c
:10199000604f210005003700b10f5400a18f5c009b
:1019a0002b00360064804000a10090000100e000a0
:1019b000f9ff3a0012003700b20f5400a28f5c000a
:1019c0002300360064004100100178000200e000ae
:1019d000f9ff3a0011017800b1a78000604f2100a3
:1019e00005003700b10f5400a18f5c0018003600cd
:1019f00064804000a1009000828f5000f9ff3a00ff
:101a00008aa780009ba78000880f5500898f5d0002
:101a1000010031000805be000a00be0058000700a2
:101a20000000e00006003a00880f5500898f5d0035
:101a3000060032008b05d1000a85d300f2ff370083
:101a40000a98be002aff0700cbff37000000eb001a
:101a50004f05be004f04be0000000600889fbe0078
:101a60000002be0065004000e080480000037800ee
:101a70000600a10081017800060178000204be0082
:101a80008000eb00840f5400858f5c002700360037
:101a9000e50f5400e08f5c0002003e00680020006b
:101aa000090020000800be00b0ff07008000eb0026
:101ab0000000e0001d00320090007800a4ff2f001d
:101ac000f5ff2f0031014200a1814a00880f51002b
:101ad000898f590003003100a102900005087800a9
:101ae000080037000881400002087800a10190003a
:101af00023019800100178003119140021911c0075
:101b00008888be00100178000000eb000200e000b1
:101b100004003200a20190000300e0000100320046
:101b200064004100a0a78800e48040000100780024
:101b30004f04be00000006000202be008001eb0060
:101b4000050037008301e80092cf10000a00320040
:101b500061025200e0825a006103b800068341002e
:101b6000e0834b0006017800e00f5200e08f5a003e
:101b7000f4ff3a00000005000600780000000600af
:101b80000001be008000eb000200e000060034000f
:101b90000200780036fb070080007800e18f4000eb
:101ba00001003a008000eb00010078000000060010
:101bb000fc874700889fbe008a9fbe008c9fbe00a6
:101bc0008e1f78000006780080c5b30080cf5000db
:101bd0000a0032007740400080cf50000a003200f7
:101be0006940400080cf50000b003200b048210017
:101bf00080bf9f00ae0020000a003700a2472100ee
:101c000082bf9f0006003700b348210083bf9f00ba
:101c10008e00200003003700b448210084bf9f00dd
:101c20000e0120003c02be002c03be000605be00d3
:101c30000404be0040c6b30080cf50000300320051
:101c40006540400080cf50000b003a00e00f52008a
:101c5000e08f5a00e00f5b00e08f5b0006003d0064
:101c60006000b8006011b80004045000858458007a
:101c70000605590087855900e80f57000400320017
:101c800040002000f00f570046003a0001003700e6
:101c900030002000e00f5400e08f5c00e00f5d009a
:101ca000e08f5d0004003a00dc0890008d01200008
:101cb0000100e0000d0032000e01e900cf91de00ce
:101cc0000802be0082006400038262008402780081
:101cd000010278000401be008fba97000281420021
:101ce00012417800f2ef9f007d0120008000780013
:101cf0008100e900050033008b05d1000a85d3007f
:101d00008984d3000884d300f9ff3700089ebe0001
:101d10000a96be00190037008d06e9000e01e900a1
:101d2000cf91de000404be008200620003846400e0
:101d300088047800010478000801be008fb897007d
:101d4000028140009240780083fd2f008d81410088
:101d500081f77900000178000201e90005003300f5
:101d60008783d1000683d3008582d3000482d30009
:101d7000f9ff3700049ebe000696be003c02be007e
:101d80002c03be00e00f5200e08f5a00e00f5b0012
:101d9000e08f5b00910034000d00e000deff3c00ae
:101da0008e0037002c60900081c6b300814f500038
:101db0000b00320006003c000004e0000800320086
:101dc000e6c05000814f500052003a000400370036
:101dd000c1c6b300814f50004e003a0023003700c7
:101de0000800e00004003a005c0890008d0120002b
:101df0000000e00007003200110009000e84d80046
:101e00008fb997000180410010407800f0ef9f00eb
:101e10007d012000110009000e84d8000b0037005e
:101e2000110009000e04d8008d06e9008e81b9006a
:101e3000020454008fb8970008844000984178004d
:101e400082fd2f000d0141008377790000047800a6
:101e50000800e000020032000d00e000f0ff3c004e
:101e6000cfc4de00614db90027003700e00f5400f9
:101e7000e08f5c0004003a005c0890008d012000b7
:101e80000000e000080032006171b9000800be00e7
:101e90006f0107000fba9700800042009140780060
:101ea000f1ef9f007d0120006171b9000800be00c4
:101eb000570107000c0037006171b9000800be002f
:101ec000440107008d06e90080f1b90002045400c6
:101ed0008fba9700088442009841780082fd2f0055
:101ee0000d014100837779000004be00e00f50002f
:101ef000e08f5800020032000d00e000eeff3c00d1
:101f00004fcdde008a057800089ebe000a96be000e
:101f100032003700e00f5400e08f5c00e00f5d00fe
:101f2000e08f5d0004003a005c0890008d01200005
:101f30000000e0000a0032006172b900612bb900b4
:101f40000800be000a01be00ea0107000fba9700b0
:101f50008000420091407800f1ef9f007d01200059
:101f60006172b900612bb9000800be000a01be0011
:101f7000d90107000e0037006172b900612bb9006a
:101f80000800be000a01be00de0107008d06e90060
:101f900080f2b900040454008fba9700088442000c
:101fa0009842780084fd2f000d02420085777a0068
:101fb000009ebe000296be003c04be002c05be0082
:101fc000e00f5400e08f5c00e00f5d00e08f5d00eb
:101fd000020034000d00e000e7ff3c00e80f57006e
:101fe00010003a000c1090000038a3000d003200e1
:101ff000f78f560006003e0080fd2f000d004000c8
:10200000ef40780000c3b30080cf500005003200dd
:1020100002c3b30071fd2f008d8040008d06e900e2
:1020200082f77800f8801600110e98006c0090007e
:102030006109b90084fd2f000f0242008d004200ab
:10204000abfa07001c089000dc089000810f5000dc
:1020500006003d0000805000000e98000c1090001b
:102060000040a100001698000f0037000100e000ba
:102070000d003d008c109000f4806000f08f500047
:1020800009003a007c099000fc009000810051009a
:102090000c09900082805000008050004240a9004e
:1020a00001003400000e98004f0778004f06be0074
:1020b0004f05be004f04be00cf01b1000000060076
:1020c0000400fa00889fbe008a9fbe008c1f780023
:1020d0000004780001067800f80d90007800900068
:1020e00080855500080890008085550018089000ec
:1020f000808555002808900080855500380890009c
:102100008085550048089000808555000002220017
:1021100090bf9f0000032300a0bf9f000810900005
:102120000028a30015003a000b00e0001300340063
:102130000b0578008a047800e20f55000100360094
:10214000290020006149b90048029000ee80570044
:102150005800900004000100500498000000e000c6
:102160008f0032006808900009004000600c980061
:10217000090555004240a900eeff3c0078009000a0
:102180000000e0000d0034006101b9004802900039
:102190008c00780058009000040001005004980062
:1021a0008080eb000000e0007e003200e808900034
:1021b0007800900000804000600c9800880c90002f
:1021c0000900e0001100340009057800e28f540096
:1021d000010036002a0020006151b9004802900039
:1021e000ec80570058009000040001005004980053
:1021f0000000e0006a003200680890000a00400019
:10220000600c98008a845400edff37001808900095
:102210000000e0000d0034006101b90048029000a8
:10222000e80090005800900004000100500498005d
:102230008080eb000000e0005a003200e8089000c7
:102240001808900000804000600c9800a80c9000d6
:102250000900e0001100340009057800e28f540005
:10226000010036002a0020006151b90048029000a8
:10227000ec805700580090000400010050049800c2
:102280000000e00046003200680890000a004000ac
:10229000600c98008a845400edff370038089000e5
:1022a0000000e0000f0034006101b9001808900040
:1022b000e8009000808040004802900058009000a4
:1022c00004000100500498008080eb000000e00052
:1022d00034003200e8089000380890000080400088
:1022e000600c9800c80c90000900e0001100340058
:1022f00009057800e28f5400010036002a00200012
:102300006151b90048029000ec80570058009000dd
:1023100004000100500498000000e000200032009a
:10232000680890000a004000600c98008a845400fd
:10233000edff3700081090008000eb000028a3009c
:10234000180032000b00e000160034008b04780007
:1023500009057800e28f5400010036002a002000b1
:102360006151b90048029000ee805700580090007b
:1023700004000100500498000000e0000800320052
:10238000680890000a004000600c98008a8454009d
:102390004240a900eeff3c008000eb000100370046
:1023a0008080eb00010078004f0678004f05be00ea
:1023b0004f04be000080fa000000060000c0da00f2
:1023c0000000060000c0da000000060000c0da00cd
:1023d00000000600839f68000100e00002003d004d
:1023e00060001000e08018000300e00002003d00e3
:1023f00060011100e0811900050007004f00e000b6
:1024000002003b0060001000e080180000000600a1
:102410006022b800060220000000d0008180d200b7
:102420000482d2008582d2000000a0000202520085
:1024300083825a00030031000202420083824a0074
:102440000000a1000603e900f3ff3a0000000600c7
:10245000efff07000400be0000000600020ab900fa
:10246000001bb9000200b800810042008100430057
:1024700000000600889fbe008a9fbe003004420014
:10248000b0844a0030054b0090854b006000b100dd
:102490000898be000a90be000440e10005c8e100b3
:1024a00006d0e10007d8e1000200310068004000da
:1024b0001008e8004f05be004f04be0000000600f3
:1024c000889fbe008a9fbe003004be002005be006b
:1024d0000418540005985c0006185d0007985d001c
:1024e000110020000440e10005c8e10006d0e10031
:1024f00007d8e100010039008000eb0010881000cf
:102500004f05be004f04be00000006001200fa0096
:10251000889fbe008a9fbe008c9fbe00e0b79f00d0
:10252000f1b79f0082bf9f0093bf9f000605be00ca
:102530000404be000000eb00d0b79f00c0b79f00ae
:10254000b0b79f00a0b79f0090b79f000006eb00b8
:102550005fb19700cfb09700820141003fb0970074
:102560000200e00004003d00370007007e805700b5
:10257000c0ff070003003700330007007e805700cc
:10258000cfff0700dfb697000d00e0000c0035001c
:102590006fb29700ffb297000fbb97009fbb9700e9
:1025a00010002000010020006011b800000272003d
:1025b0008182720002037300838373001b00070093
:1025c0000c06e80001042000810f5600e0ff3a00ed
:1025d0000d00e00004003d000802be000a03be003a
:1025e0007e805700a3ff07005fa897000000e0006f
:1025f00005003a001fb29700afb297003fb39700b3
:10260000cfb39700090007006fb09700ffb09700a5
:102610000fb997009fb997004f06be004f05be0047
:102620004f04be000080fa00000006000100070011
:1026300000000600a4b79f00b5b79f00c6b79f0073
:10264000d7b79f00000006004f09de0082817100ad
:10265000b3b79f004f01de00818040008280700090
:10266000a1b79f008fb097004f09de000000400027
:102670000200700090b79f007fa897004f01de0016
:10268000818040008280700081b79f000d000700ac
:102690004f3ade000000400004007000f0af9f00e1
:1026a000080007000402420085824a0006034b002e
:1026b00087834b00dfff07000802be000a03be004d
:1026c000000006002fb29700bfb297004fb39700eb
:1026d000dfb3970000000600881f78001800200074
:1026e000881f780089ff07008f87e9004f04780072
:1026f00000000600801feb0084ff07008f87e900c1
:1027000000000600889fbe008a9fbe00e00f5000b8
:10271000e08f5800e00f5900e08f59000c003d0099
:102720006044b8006055b8000000540081805c002f
:1027300002015d0083815d00180020001500070084
:1027400008003d00180007000004eb0005003700fa
:102750000004eb000f00070002003d00120007001c
:1027600018002000dcff07000800e000060032002f
:102770006022b8006033b8000000520081805a0027
:1027800002015b0083815b004f05be004f04be0069
:1027900000000600e00f5200e08f5a00e00f5b00df
:1027a000e08f5b00000006006044b8006055b80090
:1027b0000402540085825c0006035d0087835d008f
:1027c00000000600889fbe008a9fbe008c1f780014
:1027d000e00f5000e08f5800e00f5900e08f5900e3
:1027e0000d003d006044b8006055b8000000540082
:1027f00081805c0002015d0083815d001c0020007f
:102800000820e10009a8e1000ab0e1000bb8e100ee
:102810000d003d00080037000006eb00e00f5200fd
:10282000e08f5a00e00f5b00e08f5b0006003d0088
:102830006044b8006055b8000402540085825c0012
:1028400006035d0087835d00aaff07000c00e0001f
:10285000060032006022b8006033b8000000520069
:1028600081805a0002015b0083815b004f06780083
:0c2870004f05be004f04be000000060033
:020000040000fa
:10287c00414400003731000037350000204900008a
:10288c00443100003a20000020250000582c0000a4
:10289c0020250000580a00000041000044370000c9
:1028ac00313700003520000049440000323a000066
:1028bc0020200000255800002c2000002558000086
:1028cc000a00000041440000373100003735000099
:1028dc0020490000443300003a200000256c000021
:1028ec0064200000202500006c580000202000000f
:1028fc000a00000041440000373100003735000069
:10290c0020450000727200002000000041440000cd
:10291c003731000037350000204f00004b200000fd
:10292c002c2500006c640000200a000000ff000051
:10293c00ffff0000ffff0000ffff0000ffff000093
:10294c00ff000000ffff0000ffff0000ffff000082
:08295c00ffff0000ffff000077
:020000040000fa
:102964001200fa00000f98006000b80010079800e9
:1029740021079800e7004700070009008058eb0092
:102984000040eb00004f78000040eb0060479800e7
:102994000e0890001000be00004078000064a00003
:1029a4007047980024d0bf000004e0000600320005
:1029b4000e089000d0009000400090000040780085
:1029c40000c0e800050037000e089000d000900019
:1029d40040009000004078000040e800e700470015
:1029e4000041780010c0b3008c0a07000080fb008f
:1029f4008000eb0010079800210798001e0090004b
:102a0400ae009000e00f5000e08f580003003d003e
:102a14001e009000ae0090003d00370024d0bf009f
:102a24000004e0000f0032000e089000d000900077
:102a340040009000004078008040e80067004700b4
:102a44000000e800eb000700604798006e4090002b
:102a5400ed4f4000030032000080eb008080eb006b
:102a64002b0037000e0990006000b8002001980088
:102a74003101980010c0b300004f780018003700ef
:102a84000e08900020019000b00190004818dd006d
:102a9400c810de00810070004810dd000e099000af
:102aa40020019800310198000e0890002001900048
:102ab400b00190001e80fb00670040006e4078006b
:102ac4000080fb008000eb0002004000838048008f
:102ad4000e09900020019800310198001e4fe80073
:102ae4001e81fb008001eb000e089000d0009000d6
:102af4004000900061004000e0804800800f5100d9
:102b0400818f5900deff35001e009000ae0090005a
:102b14000080fa00000006002000fa00200f980050
:102b2400310f9800420f9800530f9800640f9800db
:102b3400750f98006000b8003007980041079800ae
:102b44006000b800008fbe00eb00470007000900da
:102b54008058eb000040eb00404798000040eb0039
:102b6400204f98002e089000be0890000040780086
:102b7400304f98004e099000de099000028fbe008d
:102b84000040eb0040479800140037006e099000a5
:102b9400fe0990004e4090000080fb008000eb0096
:102ba40000005100818059001e0178000241780024
:102bb4006b004000027778001e00be00c809dd00eb
:102bc4004803de0006837100c88bde00068fbe005a
:102bd4004e4090000040e800404798004e4090006e
:102be4000081fb008001eb006e089000fe0890005d
:102bf400800f5100818f5900e4ff350024d0bf00bd
:102c04000004e0000f0032006e089000fe089000ff
:102c1400004078008040e8006b0047007500070022
:102c2400204f98006e089000fe089000610040005c
:102c3400e08048002e49900002c1ea006b00400089
:102c44000277780024d0bf000004e00005003200c1
:102c54006e089000fe0890000040780000c0e80074
:102c6400040037006e089000fe08900000407800d1
:102c74000040e800eb0047000041780010c0b300ba
:102c8400d90907000080fb008000eb0030079800a2
:102c9400410798003e009000ce0090000080fa00aa
:102ca400000006000c00fa00300798004107980065
:102cb400520798000040eb00004f780024003700d2
:102cc4005e00900026ff0700100798002107980077
:102cd4001e009000ae009000e00f5000e08f5800fe
:102ce40003003d001e009000ae0090002f0037004e
:102cf4005e00900020019000b001900000082000c8
:102d040001002000020278000301780080017800ad
:102d14000100780003026200000061008000eb0003
:102d2400c000dd00000020000001be006120b800ea
:102d340000017100818171000280710000f0a70020
:102d44000000ea000000ea004f00de00004f7800b7
:102d54001e4078000004e0000b003a003e009000a2
:102d6400ce00900061005000e080580030079800c9
:102d7400410798003e009000ce009000e00f500004
:102d8400e08f5800ceff3a003e009000ce00900045
:102d9400e00f5000e08f5800020032006000b800dd
:102da400020037000080eb008080eb000080fa0016
:102db400000006000800fa00200798003107980078
:102dc4003e0090004002b000e5fe0700008fbe0008
:102dd4003e0090004002b000b0009000200090003f
:102de4002e0190000089be001e00be000080fa0083
:102df400000006000600fa001007980041479800fa
:102e04000040eb00004f780000c0eb001047980032
:102e14001c0037001e009000104078009e40900077
:102e240000c06800104798001e0090000000e800f1
:102e3400100798000040eb00004f78000e003700a8
:102e44001e4090000004e00007003d001e4090007a
:102e54000080fb00000040000040780070c0b20019
:102e640010479800030037001e40900000404000c7
:102e7400104798001e4fe8001e407800e74f5000ae
:102e8400efff36004e4090000080fb000000ea0097
:102e94004f00de0000407800ce4090008140e90001
:102ea400414798000004e000daff3a001e40900019
:102eb4000080fa00000006001a00fa00400f980093
:102ec400e4004700824a290009000900b25878004a
:102ed400ee0047006400470001017800a1002000d3
:102ee400870607004e089000ec02400015007800a9
:102ef4009500900025019000b501900045029000d6
:102f0400d502900004ff0700008fbe001e00be0023
:102f1400e00f5000e08f580002003d001e00be008c
:102f2400080137004e089000f802400015007800b0
:102f34009500900025019000b50190004502900095
:102f4400d5029000f4fe0700008fbe001e00be00f4
:102f5400e00f5000e08f580002003d001e00be004c
:102f6400f80037004e0890007800400020019000df
:102f7400b0019000800020000100200002027800cf
:102f840003017800800178000100780003026200e8
:102f9400000061008000eb00c000dd0000002000a4
:102fa4000001be006120b800000171008181710040
:102fb4000280710000f0a7000000ea000000ea00af
:102fc4004f00de000040780024f0b7004e08900067
:102fd40005032000808242001500780095009000cf
:102fe40025019000b501900045029000d5029000a3
:102ff400c9fe0700008fbe001e00be00e00f500097
:10300400e08f580002003d001e00be00cd003700d6
:103014004e0890008504200080824200150078004c
:103024009500900025019000b501900045029000a4
:10303400d5029000b8fe0700008fbe001e00be003f
:10304400e00f5000e08f580002003d001e00be005b
:10305400bc0037004e0890004505200080824200e5
:10306400150078009500900025019000b5019000ae
:1030740045029000d5029000a7fe0700008fbe0015
:103084001e00be00e00f5000e08f580002003d001b
:103094001e00be00ab0037004e089000050620005d
:1030a4008082420015007800950090002501900070
:1030b400b501900045029000d502900096fe0700ed
:1030c400008fbe001e00be00e00f5000e08f5800cd
:1030d40002003d001e00be009a0037004e0890001a
:1030e400c5062000808242001500780095009000fb
:1030f40025019000b501900045029000d502900092
:1031040085fe0700008fbe001e00be00e00f5000c9
:10311400e08f580002003d001e00be008900370009
:103124004e08900085072000808242001500780038
:103134009500900025019000b50190004502900093
:10314400d502900074fe0700008fbe001e00be0072
:10315400e00f5000e08f580002003d001e00be004a
:10316400780037004e089000450820008082420015
:10317400150078009500900025019000b50190009d
:1031840045029000d502900063fe0700008fbe0048
:103194001e00be00e00f5000e08f580002003d000a
:1031a4001e00be00670037004e089000050920008d
:1031b400808242001500780095009000250190005f
:1031c400b501900045029000d502900052fe070020
:1031d400008fbe001e00be00e00f5000e08f5800bc
:1031e40002003d001e00be00560037004e0890004d
:1031f400c5092000808242001500780095009000e7
:1032040025019000b501900045029000d502900080
:1032140041fe0700008fbe001e00be00e00f5000fc
:10322400e08f580002003d001e00be00450037003c
:103234004e089000850a2000808242001500780024
:103244009500900025019000b50190004502900082
:10325400d502900030fe0700008fbe001e00be00a5
:10326400e00f5000e08f580002003d001e00be0039
:10327400340037004e089000450b20008082420045
:10328400150078009500900025019000b50190008c
:1032940045029000d50290001ffe0700008fbe007b
:1032a4001e00be00e00f5000e08f580002003d00f9
:1032b4001e00be00230037004e089000050c2000bd
:1032c400808242001500780095009000250190004e
:1032d400b501900045029000d50290000efe070053
:1032e400008fbe001e00be00e00f5000e08f5800ab
:1032f40002003d001e00be00120037004e08900080
:10330400c50c2000808242001500780095009000d2
:1033140025019000b501900045029000d50290006f
:10332400fdfd0700008fbe001e00be00e00f500030
:10333400e08f580002003d001e00be00010037006f
:0c3344001e00be000080fa000000060021
:020000040000fa
:10335000bc1400001a000000800000009c14000053
:10336000200000008000000020100000020000008b
:1033700082000000ffff0000f814000002000000bf
:103380008000000022100000020000008000000009
:10339000161000000a00000080000000001000006d
:1033a00016000000820000000d0a0d000a333400f0
:1033b00031320d000a0d0a003334310032f00800ba
:1033c00008101a001000000026100000cc030000b6
:1033d000820000000000000000000000000001006a
:1033e0000000000001000000000c210000000200ad
:1033f00000000000020000000000000000000200c9
:1034000000000000040000000000000000000300b5
:1034100000000000060000000000000000000200a4
:103420000000000007000000000000000000020093
:1034300000000000100000000001800000000200f9
:103440000000000011000000000000000000020069
:103450000000000012000000000000000000020058
:103460000000000013000000000000000000020047
:103470000000000020000000000013000000020017
:1034800000000000210000000010130000000200f6
:103490000000000022000000000000000000020008
:1034a00000000000230000000000000000000200f7
:1034b0000000000028000000000a050000000200d3
:1034c0000000000029000000000a050000000200c2
:1034d000000000002a000000000a050000000200b1
:1034e000000000002b000000000a050000000200a0
:1034f0000000000030000000000000000000030099
:103500000000000031000000000000000000030087
:103510000000000032000000000000000000030076
:103520000000000033000000000000000000030065
:103530000000000038000000000000000000030050
:10354000000000003900000000000000000003003f
:10355000000000003a00000000000000000003002e
:10356000000000003b00000000000000000003001d
:1035700000000000ff00000000000000000001004b
:10358000000000000000000000000000000001003a
:103590000000000001000000000c210000000200fb
:1035a0000000000002000000000000000000020017
:1035b0000000000004000000000000000000030004
:1035c00000000000060000000000000000000200f3
:1035d00000000000070000000000000000000200e2
:1035e00000000000100000000001000000000200c8
:1035f00000000000110000000043800000000200f5
:1036000000000000120000000000000000000200a6
:103610000000000013000000000000000000020095
:103620000000000020000000000013000000020065
:103630000000000021000000001013000000020044
:103640000000000022000000000000000000020056
:103650000000000023000000000000000000020045
:103660000000000028000000000a05000000020021
:103670000000000029000000000a05000000020010
:10368000000000002a000000000a050000000200ff
:10369000000000002b000000000a050000000200ee
:1036a00000000000300000000000000000000300e7
:1036b00000000000310000000000000000000300d6
:1036c00000000000320000000000000000000300c5
:1036d00000000000330000000000000000000300b4
:1036e000000000003800000000000000000003009f
:1036f000000000003900000000000000000003008e
:10370000000000003a00000000000000000003007c
:10371000000000003b00000000000000000003006b
:1037200000000000ff000000000000000000010099
:103730000000000000000000000000000000010088
:103740000000000001000000000c21000000020049
:103750000000000002000000000000000000020065
:103760000000000004000000000000000000030052
:103770000000000006000000000000000000020041
:103780000000000007000000000000000000020030
:103790000000000010000000000100000000020016
:1037a0000000000011000000000000000000020006
:1037b00000000000120000000000000000000200f5
:1037c0000000000013000000001191000000020042
:1037d00000000000200000000000130000000200b4
:1037e0000000000021000000001013000000020093
:1037f00000000000220000000000000000000200a5
:103800000000000023000000000000000000020093
:103810000000000028000000000a0500000002006f
:103820000000000029000000000a0500000002005e
:10383000000000002a000000000a0500000002004d
:10384000000000002b000000000a0500000002003c
:103850000000000030000000000000000000030035
:103860000000000031000000000000000000030024
:103870000000000032000000000000000000030013
:103880000000000033000000000000000000030002
:1038900000000000380000000000000000000300ed
:1038a00000000000390000000000000000000300dc
:1038b000000000003a0000000000000000000300cb
:1038c000000000003b0000000000000000000300ba
:1038d00000000000ff0000000000000000000100e8
:1038e0000000000024100000020000008000000022
:1038f000f2130000880000008200000001000000b8
:1039000000181400191418001418140018141800c2
:103910001408140000000000000000000000000077
:103920000000000000000000000000000000000097
:10393000000208000101400014411400401440003e
:103940001440140040143000140000000000000077
:103950000000000000000000000000000000000067
:103960000000000000000200080202006814690064
:1039700014681400681468001468140058140000d7
:103980000000000000000000000000000000000037
:10399000000000000000000000000000f2131a0008
:1039a00014421400000000000000000000000000ad
:1039b00000000000d61400001a0000008200000081
:1039c000686a6c00747a4c0000000100000200007c
:1039d0000400080000100000000020002b2d230030
:1039e00030000000fa140000020000008000000017
:1039f000f014000004000000820000000600000037
:103a000000000000f414000004000000800000002a
:103a10007a140000220000008200000030313200e1
:103a200033343500363738003941420043444500cd
:103a30004600300031323300343536003738390033
:103a4000616263006465660000000000fc14000011
:103a5000020000008200000001000000fe140000cf
:0c3a6000020000008000000000000000d8
:020000040000fa
:103a6c000000fa00c3e8a8000000000000000000fd
:103a7c000080fa00000006000000fa00c3e8a9006c
:103a8c0000000000000000000080fa0000000600aa
:103a9c000400fa00000f7800110798001e0078004f
:103aac00e10f50000a003200e10f50000500390010
:103abc00e20f500009003200e30f50000a00320000
:103acc000c0037001e009000605888000900370079
:103adc001e009000e0588800060037001e00900081
:103aec0060598800030037001e009000e0598800e0
:103afc00000000000080fa00000006002600fa001a
:103b0c0070c4b300404f98000040eb00504f980039
:103b1c000040eb00604f9800f2004700d2492900aa
:103b2c0009000900b258780070c4b300004f780047
:103b3c00fc0047007200470001017800a100200042
:103b4c006d030700009f2400210020006a06070077
:103b5c001e40780060030700104798001e40780054
:103b6c005d030700204798002e4090008080fb00ea
:103b7c001e4090000080fb00811f7800801f7800a1
:103b8c00e0432900801f780054f40700e6875700b3
:103b9c00ef0047006c004700010178003100200065
:103bac00550307001e5090008080fb000e509000c3
:103bbc000080fb00811f7800801f780030452900b1
:103bcc00801f780045f40700e68757002006210087
:103bdc0061fb0700200798003107980032838000b2
:103bec004383800042079800530798004e009000d2
:103bfc00de009000809fbe002e009000be00900062
:103c0c00809fbe0080462900801f780033f4070097
:103c1c00ea8757002e009000be009000e00f500085
:103c2c00e08f580003003d00004829002ff30700e7
:103c3c00070037002e009000be009000809fbe0051
:103c4c00c0482900801f780024f40700e68757003d
:103c5c002e0090000080fa00000006000600fa001a
:103c6c00158ea80015aea80015cea80015eea8005c
:103c7c00b07080004c00de0061406000004f7800a6
:103c8c00b07080004d00de0061406000104798006d
:103c9c00b07080004e00de0061406000204798004c
:103cac00b07080004f00de00004078003047980074
:103cbc009e4078001e4090000080fb000000e90050
:103ccc004f00de000040780080c040002e41900084
:103cdc0010c0b300e14f5100010036000040eb0072
:103cec0080c040003e41900010c0b300e24f510034
:103cfc00010036000040eb0000c040004047980037
:103d0c004e4090000080fb00e20f50000c0032008f
:103d1c00e20f500003003c00e10f5000060032009f
:103d2c000d003700e40f500007003200e80f500080
:103d3c00070032000800370010c0b300070037003e
:103d4c0020c0b3000500370030c0b30003003700bb
:103d5c0040c0b300010037000040eb000080fa00c7
:103d6c00000006000600fa00404798006000b8000a
:103d7c00008fbe00010121009140780000cab30001
:103d8c0080cf50001600320000cab30010f0b7000c
:103d9c0039ff0700803e200001002000d6050700f7
:103dac004e409000e44f500004003a00a016210051
:103dbc003ffc0700008fbe000300370060022100ab
:103dcc003bfc0700008fbe004006200001002000d5
:103ddc00c905070022ff0700040ea800042ea80046
:103dec001e007800004078000080fa0000000600f9
:103dfc000600fa00404798006000b800008fbe0033
:103e0c00010121009140780000cab30080cf50001e
:103e1c0004003a0000cbb30010f0b700040ea90068
:103e2c00042ea9001e007800004078000080fa00e3
:103e3c00000006000600fa00404798006000b80039
:103e4c00008fbe00010121009140780000cbb3002f
:103e5c0080cf50000d003a0000ccb30010f0b7003a
:103e6c0005ff0700803e200001002000a20507008e
:103e7c00e02a21000efc0700008fbe004006200047
:103e8c00010020009c050700f5fe07001e007800cd
:103e9c00004078000080fa00000006001000fa00d4
:103eac00889fbe000000eb00400798006000b8003f
:103ebc0050079800610798000000210070079800d7
:103ecc006000b8006011b800009fbe000297be00f1
:103edc00b1020700e8fe070040222000605888006d
:103eec00412220000000eb00e9fe070080002100c9
:103efc002058880060222000e058880061222000b1
:103f0c0010002000e2fe070000002100a0588800ed
:103f1c0000002100b05888002828a800180ea9001d
:103f2c00803e20000100200073050700f3fe07000f
:103f3c00cf80de005007980061079800803e20007b
:103f4c00010020006c050700180ea800803e200020
:103f5c000100200068050700000ea900040ea8004f
:103f6c00002ea900042ea8003cff07001ef0b7008d
:103f7c001ed0bf007bff07000080fb008000eb0021
:103f8c005007980061079800bbfe0700180ea800a8
:103f9c00007122000100200057050700f303070001
:103fac00fa030700aefe0700180ea90000712200ec
:103fbc000100200050050700010037000000000040
:103fcc007e0090003002be002003be003e00be000a
:103fdc002e01be000020e10001a8e10002b0e100ca
:103fec0003b8e1003f0032007e0090003002be00ba
:103ffc002003be00049fbe000697be003e00be001c
:10400c002e01be00d4402400252520006033b800ca
:10401c000400e1000588e1000690e1000798e1004a
:10402c0022003200d4402400252520006033b80043
:10403c000400e1000588e1000690e1000798e1002a
:10404c0009003c00d4402500352420006033b80022
:10405c000400e1000588e1000690e1000798e1000a
:10406c001a0032001c003700d440250045252000e2
:10407c006033b8000400e1000588e1000690e1001f
:10408c000798e1000e003200d44025007525200071
:10409c006033b8000400e1000588e1000690e100ff
:1040ac000798e100030032000b0037001170ef009d
:1040bc000c0037001ed0bf005eff07000900370060
:1040cc001ed0bf004aff0700060037001ed0bf00fd
:1040dc0024ff07000300370080c0b30011f0b700c5
:1040ec0000000000d2808000e3808000b08080005f
:1040fc00c1808000800f5100818f5900afff3200ca
:10410c00b0808000c1808000d0808800e180880071
:10411c00d2808000e380800000f02f00f10f20009f
:10412c000202780003017800800178000100780019
:10413c0003026200000061008000eb00c000dd00a3
:10414c00000020000001be006120b80000017100d9
:10415c0081817100c81add004814de0008847200e9
:10416c00c89cde00480798004e009000c203070070
:10417c0093ff37000000fa00800020000011880037
:10418c002222ef0090012000401188002168a80035
:10419c0021e2a8002342a8000080fa0000000600db
:1041ac000000fa000188a9000080fa000040060017
:1041bc000000fa000168a9000080fa000040060027
:1041cc003600f800809fbe00829fbe00849fbe0018
:1041dc00869fbe000000fa00101180006200600093
:1041ec000000e000010032002222a900e1ff0700dc
:1041fc0011eba8000828a9000080fa004f03be00ac
:10420c004f02be004f01be004f00be003600f90049
:10421c00004006000200fa000040eb00004f78005e
:10422c00f0a58000104f7800f0a580000000e80099
:10423c00f0a58800f1a58000604d2100808f500012
:10424c0002003a00e04c2100f0a58800f1a58000a6
:10425c00e0a58000808f500003003a0020a680006b
:10426c000010a00020a6880020a680000000a1005d
:10427c0020a688001e4078000080fa00000006008e
:10428c000600fa00881f7800100798002107980094
:10429c000000eb00000f78000900370020a680001a
:1042ac00620060000000e0000a003a001e0090006e
:1042bc001e044000d7ff0700004c78001e0fe800da
:1042cc002e0090009e007800808f5000f3ff390084
:1042dc0001003700000000001e0078004f04780039
:1042ec000080fa00000006000200fa00004f78007f
:1042fc002188a90000a680001e48780000a6800036
:10430c000000e80000a6880001a68000e04c210017
:10431c00808f500002003a00604c210000a68800fb
:10432c0020a680000090a10020a6880011a6800085
:10433c0000a68000808f500003003a0020a6800069
:10434c000080a00020a688002188a8000080fa0028
:10435c00000006000600fa001007980021079800dc
:10436c000000eb00000f78000a00370021a6800047
:10437c0000102000008060000000e0000a003a00fd
:10438c001e0090001e004000104078001e0fe80038
:10439c00d5ff07002e0090009e007800808f500003
:1043ac00f2ff390001003700000000001e00780009
:1043bc000080fa00000006000200fa000000eb008a
:1043cc00000f780021a68000001020000080600003
:1043dc000000e000010032001e30a00021a6800089
:1043ec0000202000008060000000e000010032008e
:1043fc001e40a00020a68000610060000000e000cc
:10440c00010032001e00a00020a6800062006000a7
:10441c000000e000020032001e20a0000100370066
:10442c001e10a0001e0078000080fa00000006009c
:10443c000200fa00000f7800f0a580009e004000fa
:10444c00604d2100808f500009003600f0a58000df
:10445c009e004000604d21000000ea0000804000fa
:10446c00e14c210000804000104078000300370030
:10447c00f0a580001e004000104078000080fa007b
:10448c00000006000000fa0020a680006100600019
:10449c000000e0000f003a00f1a58000e0a58000cc
:1044ac00808f500005003600f0a580008000780059
:1044bc00e0a580000080500007003700f0a58000c8
:1044cc0080007800e0a5800000805000680040006b
:1044dc00010037000000eb000080fa00000006002d
:1044ec000000fa0021a6800000102000008060006f
:1044fc000000e0000f003a0011a6800000a680002a
:10450c00808f50000500360010a6800080007800d7
:10451c0000a68000008050000700370010a6800025
:10452c008000780000a680000080500068004000e9
:10453c00010037000000eb000080fa0000000600cc
:10454c000000fa0020a680000000d100614060004d
:10455c000080fb0000f0a7000000ea000000ea0069
:10456c004f00de00004078000080fa0000000600da
:10457c000000fa0020a680004800de0061406000c8
:10458c000080fb0000f0a7000000ea000000ea0039
:10459c004f00de00004078000080fa0000000600aa
:1045ac000000fa00101180000080fa0000000600e4
:1045bc000000fa00a0062000101288001000200055
:1045cc0020128800c0002800001288000080fa0029
:1045dc00000006000400fa00000f78001107980094
:1045ec000000000000128000620060000000e0008b
:1045fc00fcff3a0011128000004020000080600097
:10460c000000e00002003a000000eb00010037005f
:10461c0010002000e10f500004003a001e0078004a
:10462c001000780040128800050037001e0078004a
:10463c00104078000080fb00401288000000000051
:10464c000112800000022000008060000000e000e9
:10465c00fbff3a0011128000004020000080600037
:10466c000000e00002003a000000eb0001003700ff
:10467c0010002000e10f500004003a001e009000d2
:10468c0041128000010878000400370040128000bd
:10469c00804078001e009000014878000080fa00ed
:1046ac00000006001a00fa00200f9800310f980045
:1046bc00420f98000000eb00000f78000000eb00a8
:1046cc00100798000000eb00000f98000000eb00b2
:1046dc00100f980011128000004020000080600034
:1046ec000000e00002003a000000eb00010037007f
:1046fc0010002000700798007e009000e10f500021
:10470c0006003a0020002000400798003e08900068
:10471c000000d100300f980002003700100020007c
:10472c00400798002e0890000000e00005003a00b9
:10473c000000eb006007980072004700200798000b
:10474c0004003700ce00900061079800ae0890007e
:10475c00210798004e0890000000e00005003a0088
:10476c000000eb00500798007000470030079800dd
:10477c0005003700ce00900051079800ce0890003d
:10478c0031079800000000000012800062006000f9
:10479c000000e000fcff3a002d0037001e009000e6
:1047ac00e70f500013003e007e009000e10f500018
:1047bc0004003a002e00900010007800401288008f
:1047cc00040037002e009000104078000080fb00a1
:1047dc0040128800ae0090006e00900000804000f7
:1047ec00200798001e0fe8001e0090000000e80053
:1047fc001007980001128000000220000080600069
:10480c000000e00012003a007e009000e10f500022
:10481c0004003a003e00900041128000010878002c
:10482c000400370040128000804078003e00900069
:10483c0001487800be0090005e00900000804000af
:10484c00300798001e0090000000e9001007980047
:10485c003e0890009e007800808f5000cfff3900fa
:10486c001700370001128000000220000080600059
:10487c000000e00012003a007e009000e10f5000b2
:10488c0004003a003e0090004112800001087800bc
:10489c000400370040128000804078003e009000f9
:1048ac0001487800be0090005e009000008040003f
:1048bc00300798001e0090000000e90010079800d7
:1048cc001e0090000000e000e6ff3a001e00780099
:1048dc000080fa00000006000400fa00204798004f
:1048ec000e80e8008e0078003aff07001e4078002a
:1048fc000080fa00000006000600fa00000f7800a5
:10490c0011079800220798002e0190009e0090003d
:10491c001e00780063ff07000080fa00000006000c
:10492c000000fa001112800000402000008060009e
:10493c000000e00002003a000000eb00010037002c
:10494c00100020000080fa00000006000000fa00b1
:10495c00001280000080fa00000006000000fa003f
:10496c00c3e8a80000000000000000000080fa006e
:10497c00000006000200fa00000f780021028000ff
:10498c00200f2000008060001e00700020028800b4
:10499c000080fa00000006000000fa005302070035
:1049ac000c000700b302070001ff0700f1fd070030
:1049bc005e010700f401070063ef0700d700070052
:1049cc00e6ff070000022000eaff07000080fa0063
:1049dc00000006000000fa000001eb00600420005b
:1049ec0071052000237420008049780081497800eb
:1049fc008249780020142300203a88004827ef00d1
:104a0c004e27ef00e0052000303a88004420a90032
:104a1c0044c0a90044e0a9004480a9000080fa0029
:104a2c00000006000000fa00003a80000080fa0046
:104a3c00000006000200fa00faff0700000f7800e1
:104a4c001e007800240007000004e0000200320081
:104a5c0000002800710007001e0078002a000700e3
:104a6c000004e00002003200000024006b0007008c
:104a7c001e007800320007000004e0000200320043
:104a8c0000202000650007001e0078003a00070097
:104a9c000004e00002003200000820005f00070064
:104aac001e007800420007000004e0000200320003
:104abc0000042000590007001e0078004a0007007f
:104acc000004e00002003200000120005300070047
:104adc000080fa00000006000400fa00100798009d
:104aec000040eb00004f78001e0090000000e0003a
:104afc0002003d0010c0b300004f78001e4078004b
:104b0c000080fa00000006000400fa00100798006c
:104b1c000040eb00004f78009e0090000000240045
:104b2c00008060000000e0000200320010c0b30002
:104b3c00004f78001e4078000080fa00000006004c
:104b4c000400fa00100798000040eb00004f7800ba
:104b5c009e00900000202000008060000000e0001b
:104b6c000200320010c0b300004f78001e407800e5
:104b7c000080fa00000006000400fa0010079800fc
:104b8c000040eb00004f78009e00900000082000d1
:104b9c00008060000000e0000200320010c0b30092
:104bac00004f78001e4078000080fa0000000600dc
:104bbc000400fa00100798000040eb00004f78004a
:104bcc009e00900000042000008060000000e000c7
:104bdc000200320010c0b300004f78001e40780075
:104bec000080fa00000006000400fa00100798008c
:104bfc000040eb00004f78001e0090007000600039
:104c0c000000e0000200320010c0b300004f78003a
:104c1c001e4078000080fa00000006000200fa0036
:104c2c00000f78009e80ea00003a8000008060004f
:104c3c00003a88000080fa00000006000000fa002c
:104c4c004027ef000080fa00000006000200fa0086
:104c5c00000f78001e007800e10f500009003200b0
:104c6c00e10f500005003900e20f50000700320040
:104c7c00e30f5000070032000800370001eba800da
:104c8c000600370011eba8000400370021eba80048
:104c9c000200370031eba800000000000080fa0091
:104cac00000006000200fa00000f78001e007800d9
:104cbc00e10f500008003200e10f500005003900f0
:104ccc00e20f500005003200e30f500004003200e8
:104cdc000400370003eba80013eba80023eba8009b
:104cec0033eba8000080fa00000006000000fa0078
:104cfc00c3e8a80000000000000000000080fa00db
:104d0c00000006000000fa00c3e8a9000000000043
:104d1c00000000000080fa00000006000000fa000d
:104d2c001000260000588800c00020001058880091
:104d3c004000200070588800000021002058880096
:104d4c00062bef000088a9002088a8001000200086
:104d5c0080588800b0002000905888003000200057
:104d6c00f058880000002100a0588800162bef0096
:104d7c0000002100c05888001a2bef0001c8a900c0
:104d8c0021c8a80001eba90011eba8000080fa00d3
:104d9c00000006003600f800809fbe00829fbe0017
:104dac00849fbe00869fbe000000fa001000200009
:104dbc00a6ff070011eba8002222a9000088a90079
:104dcc000080fa004f03be004f02be004f01be0030
:104ddc004f00be003600f900004006003600f80017
:104dec00809fbe00829fbe00849fbe00869fbe0037
:104dfc000200fa0010cab300004f7800d0c0b30014
:104e0c0010479800bfff070000808000e20f5000a1
:104e1c000b003a0030808000ed0f500008003a0083
:104e2c0001012100914078001ed0bf0080c07000ad
:104e3c0011d0bf0000c07000004f78000800370090
:104e4c00e10121009140780000cfb30000c0700058
:104e5c00004f78002168a90021e2a900c5fc0700d9
:104e6c009e407800a08080001040780080c04000f8
:104e7c00a08080000000e8001040780080c0400056
:104e8c00a08080000080e8001040780000c0400046
:104e9c0000c0ea0010479800908080009e40780087
:104eac0001487800908080000000e800a18080001c
:104ebc008180e80091407800014878009080800063
:104ecc000080e800a18080008100e800914078001b
:104edc00014878009080800063004000a180800031
:104eec009140780001487800908080006400400078
:104efc009e409000014878000000eb0053ff070033
:104f0c000000eb0067ff070001c8a90077ff07004e
:104f1c000080fa004f03be004f02be004f01be00de
:104f2c004f00be003600f900004006000000fa00f9
:104f3c00e000200000488800c008200010488800cd
:104f4c000080eb0020488800803e2000304888001c
:104f5c000048800000407800674060000080fb0043
:104f6c00108188000080fa00000006000000fa00a2
:104f7c0000408000640060000000e000010032008e
:104f8c000048a9000080fa00000006000000fa00aa
:104f9c001081800000407800674060000080fb00ba
:104fac00670060000248800081ff2f0081006100d3
:104fbc0001007000004888000080fa000000060024
:104fcc000000fa000148800080ff2f000080600084
:104fdc00004888000080fa00000006000200fa0079
:104fec00000f78009e007800314888000080fa009d
:104ffc00000006000400fa00000f7800110798006a
:10500c009e007800314888009e009000214888005e
:10501c000080fa00000006000400fa00000f78007f
:10502c00110798009e007800314888009e0090007f
:10503c00214888000080fa00000006000400fa00f5
:10504c00000f7800110798009e0078003148880006
:10505c009e009000214888000080fa0000000600a5
:10506c000200fa00000f78009e00780021488800aa
:10507c000080fa00000006000200fa00000f780021
:10508c009e007800314888000080fa00000006007d
:10509c000000fa00004080004200de006140600029
:1050ac000080fb0000f0a7000000ea000000ea000e
:1050bc004f00de00004078000080fa00000006007f
:1050cc000400fa00100798001e0090000000e00099
:1050dc000a003a00004880004400de006140600095
:1050ec000080fb0000f0a7000000ea000000ea00ce
:1050fc004f00de00004f7800010037000000000078
:10510c001e4078000080fa00000006000200fa0041
:10511c00000f78001e0078000000e00003003a0049
:10512c000089a90000000000010037000000000009
:10513c000080fa00000006000000fa0002c9a80076
:10514c000080fa00000006000000fa001048800001
:10515c004600de00614060000080fb0000f0a7000c
:10516c000000ea000000ea004f00de00004078007a
:10517c000080fa00000006000000fa0002c9a90035
:10518c000080fa00000006000000fa000621ef0083
:10519c000080eb0060088800000028008008880070
:1051ac00804f21008040eb00014878000080fa001d
:1051bc00000006000000fa000140800000082000fa
:1051cc00008060000000e00009003200904f2100d8
:1051dc00104078008040e800904f21000148780092
:1051ec00804f210011c0b3000148780000e8a900ed
:1051fc000080fa00000006000200fa00000f7800a0
:10520c009e00780061088800804f21008040eb00f0
:10521c00014878000080fa00000006000000fa0047
:10522c00600880000080fa00000006000200fa000e
:10523c00000f78009e00780031088800804f210014
:10524c008040eb00014878000080fa000000060066
:10525c000000fa00300880000080fa000000060010
:10526c000000fa00804f21008040eb0001487800dc
:10527c0011e1a8000080fa00000006000000fa000e
:10528c0011e1a9000080fa00000006000200fa00fb
:10529c00804f2100104f78001e4078000004e00081
:1052ac0003003200804f21008040eb000148780061
:1052bc001e4078000080fa00000006000000fa0092
:1052cc00904f2100104078000080fb000080fa0015
:1052dc00000006000000fa00904f21008040eb0017
:1052ec00014878000080fa00000006000000fa0077
:1052fc00042eef0000012000c07088004001200047
:10530c0000708800e0a62f00a07088000c2eef0023
:10531c00202eef000a2eef001e2eef00062eef00bf
:10532c001a2eef0030002000707088003000200032
:10533c0010718800113a8000f00b20000081600091
:10534c00600420007105200023742000804978003f
:10535c00814978008249780090c2b300a1e6b70079
:10536c0040c1b300c4e6b700c133800000fc2f007d
:10537c00008060000040a000c033880091338000a2
:10538c0000fc2f00008060000000a000903388001b
:10539c00103a8000000178000260a0006004200038
:1053ac007105200023742000804978008149780021
:1053bc00824978000080fa00000006000800fa001c
:1053cc00004f780012079800230798006147980057
:1053dc007447980000c0eb000080fa000000060043
:1053ec001000fa00204f980061079800624f980057
:1053fc006e4890000080fb000e0178008000780061
:10540c006e0090003cfd0700004078000080fa0020
:10541c00000006001000fa00204f98006107980069
:10542c00624f980004000900001feb00ae00b100b1
:10543c006e489000ea4f5000020036000040eb002e
:10544c000a0037006e00900010407800004f780082
:10545c006e4890000080fb006e0190008000780088
:10546c000e00780024fd0700004078000080fa0050
:10547c00000006000000fa0001438000f0f82f0045
:10548c00008060000040a000004388003142800092
:10549c0080ff2f00008060000000a00030428800d8
:1054ac0021428000f0ff28000080600000c0a000b6
